{
  "contractName": "TenderAuction",
  "abi": [
    {
      "constant": true,
      "inputs": [],
      "name": "bidCount",
      "outputs": [
        {
          "internalType": "uint256",
          "name": "",
          "type": "uint256"
        }
      ],
      "payable": false,
      "stateMutability": "view",
      "type": "function"
    },
    {
      "constant": true,
      "inputs": [],
      "name": "bidWinCount",
      "outputs": [
        {
          "internalType": "uint256",
          "name": "",
          "type": "uint256"
        }
      ],
      "payable": false,
      "stateMutability": "view",
      "type": "function"
    },
    {
      "constant": true,
      "inputs": [
        {
          "internalType": "uint256",
          "name": "",
          "type": "uint256"
        }
      ],
      "name": "bidWins",
      "outputs": [
        {
          "internalType": "uint256",
          "name": "id",
          "type": "uint256"
        },
        {
          "internalType": "uint256",
          "name": "tenderId",
          "type": "uint256"
        },
        {
          "internalType": "string",
          "name": "tenderTitle",
          "type": "string"
        },
        {
          "internalType": "uint256",
          "name": "bid",
          "type": "uint256"
        },
        {
          "internalType": "address",
          "name": "userHash",
          "type": "address"
        },
        {
          "internalType": "address",
          "name": "tenderIssuer",
          "type": "address"
        }
      ],
      "payable": false,
      "stateMutability": "view",
      "type": "function"
    },
    {
      "constant": true,
      "inputs": [],
      "name": "bidderCount",
      "outputs": [
        {
          "internalType": "uint256",
          "name": "",
          "type": "uint256"
        }
      ],
      "payable": false,
      "stateMutability": "view",
      "type": "function"
    },
    {
      "constant": true,
      "inputs": [
        {
          "internalType": "address",
          "name": "",
          "type": "address"
        }
      ],
      "name": "bidders",
      "outputs": [
        {
          "internalType": "uint256",
          "name": "id",
          "type": "uint256"
        },
        {
          "internalType": "string",
          "name": "username",
          "type": "string"
        }
      ],
      "payable": false,
      "stateMutability": "view",
      "type": "function"
    },
    {
      "constant": true,
      "inputs": [
        {
          "internalType": "uint256",
          "name": "",
          "type": "uint256"
        }
      ],
      "name": "bids",
      "outputs": [
        {
          "internalType": "uint256",
          "name": "id",
          "type": "uint256"
        },
        {
          "internalType": "uint256",
          "name": "tenderId",
          "type": "uint256"
        },
        {
          "internalType": "string",
          "name": "tenderTitle",
          "type": "string"
        },
        {
          "internalType": "uint256",
          "name": "bid",
          "type": "uint256"
        },
        {
          "internalType": "address",
          "name": "userHash",
          "type": "address"
        },
        {
          "internalType": "address",
          "name": "tenderIssuer",
          "type": "address"
        }
      ],
      "payable": false,
      "stateMutability": "view",
      "type": "function"
    },
    {
      "constant": true,
      "inputs": [],
      "name": "tenderCount",
      "outputs": [
        {
          "internalType": "uint256",
          "name": "",
          "type": "uint256"
        }
      ],
      "payable": false,
      "stateMutability": "view",
      "type": "function"
    },
    {
      "constant": true,
      "inputs": [
        {
          "internalType": "uint256",
          "name": "",
          "type": "uint256"
        }
      ],
      "name": "tenders",
      "outputs": [
        {
          "internalType": "uint256",
          "name": "id",
          "type": "uint256"
        },
        {
          "internalType": "string",
          "name": "itemName",
          "type": "string"
        },
        {
          "internalType": "string",
          "name": "itemDescription",
          "type": "string"
        },
        {
          "internalType": "uint256",
          "name": "quantity",
          "type": "uint256"
        },
        {
          "internalType": "address",
          "name": "userHash",
          "type": "address"
        }
      ],
      "payable": false,
      "stateMutability": "view",
      "type": "function"
    },
    {
      "constant": true,
      "inputs": [],
      "name": "uploaderCount",
      "outputs": [
        {
          "internalType": "uint256",
          "name": "",
          "type": "uint256"
        }
      ],
      "payable": false,
      "stateMutability": "view",
      "type": "function"
    },
    {
      "constant": true,
      "inputs": [
        {
          "internalType": "address",
          "name": "",
          "type": "address"
        }
      ],
      "name": "uploaders",
      "outputs": [
        {
          "internalType": "uint256",
          "name": "id",
          "type": "uint256"
        },
        {
          "internalType": "string",
          "name": "username",
          "type": "string"
        }
      ],
      "payable": false,
      "stateMutability": "view",
      "type": "function"
    },
    {
      "constant": true,
      "inputs": [
        {
          "internalType": "uint256",
          "name": "",
          "type": "uint256"
        }
      ],
      "name": "whoIsBidder",
      "outputs": [
        {
          "internalType": "address",
          "name": "",
          "type": "address"
        }
      ],
      "payable": false,
      "stateMutability": "view",
      "type": "function"
    },
    {
      "constant": true,
      "inputs": [
        {
          "internalType": "uint256",
          "name": "",
          "type": "uint256"
        }
      ],
      "name": "whoIsUploader",
      "outputs": [
        {
          "internalType": "address",
          "name": "",
          "type": "address"
        }
      ],
      "payable": false,
      "stateMutability": "view",
      "type": "function"
    },
    {
      "constant": false,
      "inputs": [
        {
          "internalType": "string",
          "name": "_username",
          "type": "string"
        }
      ],
      "name": "createUploader",
      "outputs": [],
      "payable": false,
      "stateMutability": "nonpayable",
      "type": "function"
    },
    {
      "constant": false,
      "inputs": [
        {
          "internalType": "string",
          "name": "_username",
          "type": "string"
        }
      ],
      "name": "createBidder",
      "outputs": [],
      "payable": false,
      "stateMutability": "nonpayable",
      "type": "function"
    },
    {
      "constant": false,
      "inputs": [
        {
          "internalType": "string",
          "name": "_itemName",
          "type": "string"
        },
        {
          "internalType": "string",
          "name": "_itemDescription",
          "type": "string"
        },
        {
          "internalType": "uint256",
          "name": "_quantity",
          "type": "uint256"
        }
      ],
      "name": "createTender",
      "outputs": [],
      "payable": false,
      "stateMutability": "nonpayable",
      "type": "function"
    },
    {
      "constant": false,
      "inputs": [
        {
          "internalType": "uint256",
          "name": "_tenderId",
          "type": "uint256"
        },
        {
          "internalType": "uint256",
          "name": "_bid",
          "type": "uint256"
        }
      ],
      "name": "createBid",
      "outputs": [],
      "payable": false,
      "stateMutability": "nonpayable",
      "type": "function"
    },
    {
      "constant": false,
      "inputs": [
        {
          "internalType": "uint256",
          "name": "_BId",
          "type": "uint256"
        },
        {
          "internalType": "uint256",
          "name": "_TId",
          "type": "uint256"
        },
        {
          "internalType": "string",
          "name": "_TTitle",
          "type": "string"
        },
        {
          "internalType": "uint256",
          "name": "_BidAmount",
          "type": "uint256"
        },
        {
          "internalType": "address",
          "name": "_UHash",
          "type": "address"
        },
        {
          "internalType": "address",
          "name": "_TIssuer",
          "type": "address"
        }
      ],
      "name": "addBidWin",
      "outputs": [],
      "payable": false,
      "stateMutability": "nonpayable",
      "type": "function"
    }
  ],
  "bytecode": "0x608060405260008055600060015560006002556000600355600060045534801561002857600080fd5b5061193e806100386000396000f3fe608060405234801561001057600080fd5b506004361061010b5760003560e01c80639fa95863116100a2578063cab0817a11610071578063cab0817a146102d6578063ce6b9801146102f2578063d104f3a21461030e578063d45fada214610343578063fcc8f793146103615761010b565b80639fa958631461024e578063ab24d9771461027e578063b40a56271461029c578063b7751c71146102ba5761010b565b80635dc1c9ab116100de5780635dc1c9ab146101c757806363968e19146101e357806370d29c1114610214578063907dbc1d146102325761010b565b80631f058776146101105780634423c5f11461012e578063465e1def1461016357806346b1cb5d14610197575b600080fd5b610118610392565b60405161012591906116b5565b60405180910390f35b610148600480360361014391908101906114dd565b610398565b60405161015a96959493929190611761565b60405180910390f35b61017d600480360361017891908101906114dd565b6104ac565b60405161018e959493929190611700565b60405180910390f35b6101b160048036036101ac91908101906114dd565b610632565b6040516101be919061167a565b60405180910390f35b6101e160048036036101dc919081019061141d565b610665565b005b6101fd60048036036101f891908101906113f4565b6108e4565b60405161020b9291906116d0565b60405180910390f35b61021c6109a0565b60405161022991906116b5565b60405180910390f35b61024c6004803603610247919081019061145e565b6109a6565b005b610268600480360361026391908101906114dd565b610aa7565b604051610275919061167a565b60405180910390f35b610286610ada565b60405161029391906116b5565b60405180910390f35b6102a4610ae0565b6040516102b191906116b5565b60405180910390f35b6102d460048036036102cf9190810190611506565b610ae6565b005b6102f060048036036102eb9190810190611542565b610d28565b005b61030c6004803603610307919081019061141d565b610e7c565b005b610328600480360361032391908101906114dd565b6110fb565b60405161033a96959493929190611761565b60405180910390f35b61034b61120f565b60405161035891906116b5565b60405180910390f35b61037b600480360361037691908101906113f4565b611215565b6040516103899291906116d0565b60405180910390f35b60005481565b6006602052806000526040600020600091509050806000015490806001015490806002018054600181600116156101000203166002900480601f0160208091040260200160405190810160405280929190818152602001828054600181600116156101000203166002900480156104505780601f1061042557610100808354040283529160200191610450565b820191906000526020600020905b81548152906001019060200180831161043357829003601f168201915b5050505050908060030154908060040160009054906101000a900473ffffffffffffffffffffffffffffffffffffffff16908060050160009054906101000a900473ffffffffffffffffffffffffffffffffffffffff16905086565b6005602052806000526040600020600091509050806000015490806001018054600181600116156101000203166002900480601f01602080910402602001604051908101604052809291908181526020018280546001816001161561010002031660029004801561055e5780601f106105335761010080835404028352916020019161055e565b820191906000526020600020905b81548152906001019060200180831161054157829003601f168201915b505050505090806002018054600181600116156101000203166002900480601f0160208091040260200160405190810160405280929190818152602001828054600181600116156101000203166002900480156105fc5780601f106105d1576101008083540402835291602001916105fc565b820191906000526020600020905b8154815290600101906020018083116105df57829003601f168201915b5050505050908060030154908060040160009054906101000a900473ffffffffffffffffffffffffffffffffffffffff16905085565b60086020528060005260406000206000915054906101000a900473ffffffffffffffffffffffffffffffffffffffff1681565b336000600190505b600254811161072f578173ffffffffffffffffffffffffffffffffffffffff166007600083815260200190815260200160002060009054906101000a900473ffffffffffffffffffffffffffffffffffffffff1673ffffffffffffffffffffffffffffffffffffffff161415610722576002600114610721576040517f08c379a000000000000000000000000000000000000000000000000000000000815260040161071890611695565b60405180910390fd5b5b808060010191505061066d565b506000600190505b60035481116107f9578173ffffffffffffffffffffffffffffffffffffffff166008600083815260200190815260200160002060009054906101000a900473ffffffffffffffffffffffffffffffffffffffff1673ffffffffffffffffffffffffffffffffffffffff1614156107ec5760026001146107eb576040517f08c379a00000000000000000000000000000000000000000000000000000000081526004016107e290611695565b60405180910390fd5b5b8080600101915050610737565b506002600081548092919060010191905055503360076000600254815260200190815260200160002060006101000a81548173ffffffffffffffffffffffffffffffffffffffff021916908373ffffffffffffffffffffffffffffffffffffffff1602179055506040518060400160405280600254815260200183815250600960003373ffffffffffffffffffffffffffffffffffffffff1673ffffffffffffffffffffffffffffffffffffffff1681526020019081526020016000206000820151816000015560208201518160010190805190602001906108dc9291906112d1565b509050505050565b6009602052806000526040600020600091509050806000015490806001018054600181600116156101000203166002900480601f0160208091040260200160405190810160405280929190818152602001828054600181600116156101000203166002900480156109965780601f1061096b57610100808354040283529160200191610996565b820191906000526020600020905b81548152906001019060200180831161097957829003601f168201915b5050505050905082565b60035481565b60008081548092919060010191905055506040518060a0016040528060005481526020018481526020018381526020018281526020013373ffffffffffffffffffffffffffffffffffffffff168152506005600080548152602001908152602001600020600082015181600001556020820151816001019080519060200190610a309291906112d1565b506040820151816002019080519060200190610a4d9291906112d1565b506060820151816003015560808201518160040160006101000a81548173ffffffffffffffffffffffffffffffffffffffff021916908373ffffffffffffffffffffffffffffffffffffffff160217905550905050505050565b60076020528060005260406000206000915054906101000a900473ffffffffffffffffffffffffffffffffffffffff1681565b60045481565b60015481565b6001600081548092919060010191905055506060600560008481526020019081526020016000206001018054600181600116156101000203166002900480601f016020809104026020016040519081016040528092919081815260200182805460018160011615610100020316600290048015610ba45780601f10610b7957610100808354040283529160200191610ba4565b820191906000526020600020905b815481529060010190602001808311610b8757829003601f168201915b5050505050905060006005600085815260200190815260200160002060040160009054906101000a900473ffffffffffffffffffffffffffffffffffffffff1690506040518060c0016040528060015481526020018581526020018381526020018481526020013373ffffffffffffffffffffffffffffffffffffffff1681526020018273ffffffffffffffffffffffffffffffffffffffff1681525060066000600154815260200190815260200160002060008201518160000155602082015181600101556040820151816002019080519060200190610c869291906112d1565b506060820151816003015560808201518160040160006101000a81548173ffffffffffffffffffffffffffffffffffffffff021916908373ffffffffffffffffffffffffffffffffffffffff16021790555060a08201518160050160006101000a81548173ffffffffffffffffffffffffffffffffffffffff021916908373ffffffffffffffffffffffffffffffffffffffff16021790555090505050505050565b6004600081548092919060010191905055506040518060c001604052808781526020018681526020018581526020018481526020018373ffffffffffffffffffffffffffffffffffffffff1681526020018273ffffffffffffffffffffffffffffffffffffffff16815250600b6000600454815260200190815260200160002060008201518160000155602082015181600101556040820151816002019080519060200190610dd89291906112d1565b506060820151816003015560808201518160040160006101000a81548173ffffffffffffffffffffffffffffffffffffffff021916908373ffffffffffffffffffffffffffffffffffffffff16021790555060a08201518160050160006101000a81548173ffffffffffffffffffffffffffffffffffffffff021916908373ffffffffffffffffffffffffffffffffffffffff160217905550905050505050505050565b336000600190505b6002548111610f46578173ffffffffffffffffffffffffffffffffffffffff166007600083815260200190815260200160002060009054906101000a900473ffffffffffffffffffffffffffffffffffffffff1673ffffffffffffffffffffffffffffffffffffffff161415610f39576002600114610f38576040517f08c379a0000000000000000000000000000000000000000000000000000000008152600401610f2f90611695565b60405180910390fd5b5b8080600101915050610e84565b506000600190505b6003548111611010578173ffffffffffffffffffffffffffffffffffffffff166008600083815260200190815260200160002060009054906101000a900473ffffffffffffffffffffffffffffffffffffffff1673ffffffffffffffffffffffffffffffffffffffff161415611003576002600114611002576040517f08c379a0000000000000000000000000000000000000000000000000000000008152600401610ff990611695565b60405180910390fd5b5b8080600101915050610f4e565b506003600081548092919060010191905055503360086000600354815260200190815260200160002060006101000a81548173ffffffffffffffffffffffffffffffffffffffff021916908373ffffffffffffffffffffffffffffffffffffffff1602179055506040518060400160405280600354815260200183815250600a60003373ffffffffffffffffffffffffffffffffffffffff1673ffffffffffffffffffffffffffffffffffffffff1681526020019081526020016000206000820151816000015560208201518160010190805190602001906110f39291906112d1565b509050505050565b600b602052806000526040600020600091509050806000015490806001015490806002018054600181600116156101000203166002900480601f0160208091040260200160405190810160405280929190818152602001828054600181600116156101000203166002900480156111b35780601f10611188576101008083540402835291602001916111b3565b820191906000526020600020905b81548152906001019060200180831161119657829003601f168201915b5050505050908060030154908060040160009054906101000a900473ffffffffffffffffffffffffffffffffffffffff16908060050160009054906101000a900473ffffffffffffffffffffffffffffffffffffffff16905086565b60025481565b600a602052806000526040600020600091509050806000015490806001018054600181600116156101000203166002900480601f0160208091040260200160405190810160405280929190818152602001828054600181600116156101000203166002900480156112c75780601f1061129c576101008083540402835291602001916112c7565b820191906000526020600020905b8154815290600101906020018083116112aa57829003601f168201915b5050505050905082565b828054600181600116156101000203166002900490600052602060002090601f016020900481019282601f1061131257805160ff1916838001178555611340565b82800160010185558215611340579182015b8281111561133f578251825591602001919060010190611324565b5b50905061134d9190611351565b5090565b61137391905b8082111561136f576000816000905550600101611357565b5090565b90565b600081359050611385816118cd565b92915050565b600082601f83011261139c57600080fd5b81356113af6113aa826117f6565b6117c9565b915080825260208301602083018583830111156113cb57600080fd5b6113d683828461187a565b50505092915050565b6000813590506113ee816118e4565b92915050565b60006020828403121561140657600080fd5b600061141484828501611376565b91505092915050565b60006020828403121561142f57600080fd5b600082013567ffffffffffffffff81111561144957600080fd5b6114558482850161138b565b91505092915050565b60008060006060848603121561147357600080fd5b600084013567ffffffffffffffff81111561148d57600080fd5b6114998682870161138b565b935050602084013567ffffffffffffffff8111156114b657600080fd5b6114c28682870161138b565b92505060406114d3868287016113df565b9150509250925092565b6000602082840312156114ef57600080fd5b60006114fd848285016113df565b91505092915050565b6000806040838503121561151957600080fd5b6000611527858286016113df565b9250506020611538858286016113df565b9150509250929050565b60008060008060008060c0878903121561155b57600080fd5b600061156989828a016113df565b965050602061157a89828a016113df565b955050604087013567ffffffffffffffff81111561159757600080fd5b6115a389828a0161138b565b94505060606115b489828a016113df565b93505060806115c589828a01611376565b92505060a06115d689828a01611376565b9150509295509295509295565b6115ec8161183e565b82525050565b60006115fd82611822565b611607818561182d565b9350611617818560208601611889565b611620816118bc565b840191505092915050565b600061163860178361182d565b91507f4164647265737320616c72656164792070726573656e740000000000000000006000830152602082019050919050565b61167481611870565b82525050565b600060208201905061168f60008301846115e3565b92915050565b600060208201905081810360008301526116ae8161162b565b9050919050565b60006020820190506116ca600083018461166b565b92915050565b60006040820190506116e5600083018561166b565b81810360208301526116f781846115f2565b90509392505050565b600060a082019050611715600083018861166b565b818103602083015261172781876115f2565b9050818103604083015261173b81866115f2565b905061174a606083018561166b565b61175760808301846115e3565b9695505050505050565b600060c082019050611776600083018961166b565b611783602083018861166b565b818103604083015261179581876115f2565b90506117a4606083018661166b565b6117b160808301856115e3565b6117be60a08301846115e3565b979650505050505050565b6000604051905081810181811067ffffffffffffffff821117156117ec57600080fd5b8060405250919050565b600067ffffffffffffffff82111561180d57600080fd5b601f19601f8301169050602081019050919050565b600081519050919050565b600082825260208201905092915050565b600061184982611850565b9050919050565b600073ffffffffffffffffffffffffffffffffffffffff82169050919050565b6000819050919050565b82818337600083830152505050565b60005b838110156118a757808201518184015260208101905061188c565b838111156118b6576000848401525b50505050565b6000601f19601f8301169050919050565b6118d68161183e565b81146118e157600080fd5b50565b6118ed81611870565b81146118f857600080fd5b5056fea365627a7a7231582086cad258aaeef3e055ad733efda4aef1306fdd5487f2968ca44b53034f45f7e26c6578706572696d656e74616cf564736f6c63430005100040",
  "source": "pragma solidity >=0.4.21 <0.8.0;\r\npragma experimental ABIEncoderV2;\r\n\r\ncontract TenderAuction {\r\n    uint public tenderCount = 0;\r\n    uint public bidCount = 0;\r\n    uint public uploaderCount = 0;\r\n    uint public bidderCount = 0;\r\n    uint public bidWinCount = 0;\r\n\r\n    struct Uploader {\r\n        uint id;\r\n        string username;\r\n    }\r\n\r\n    struct Bidder {\r\n        uint id;\r\n        string username;\r\n    }\r\n\r\n    struct Bid {\r\n        uint id;\r\n        uint tenderId;\r\n        string tenderTitle;\r\n        uint bid;\r\n        address userHash;\r\n        address tenderIssuer; /*here*/\r\n    }\r\n\r\n    struct Tender {\r\n        uint id;\r\n        string itemName;\r\n        string itemDescription;\r\n        uint quantity;\r\n        address userHash;\r\n    }\r\n\r\n    mapping (uint => Tender) public tenders;\r\n    mapping (uint => Bid) public bids;\r\n    mapping (uint => address) public whoIsUploader;\r\n    mapping (uint => address) public whoIsBidder;\r\n    mapping (address => Uploader) public uploaders;\r\n    mapping (address => Bidder) public bidders;\r\n    mapping (uint => Bid) public bidWins;\r\n    // modifier isUploader(address _userHash) {\r\n    //     require(uploaders[_userHash]);\r\n    //     _;\r\n    // }\r\n\r\n    // modifier isBidder(address _userHash) {\r\n    //     require(bidders[_userHash]);\r\n    //     _;\r\n    // }\r\n\r\n    modifier alreadyPresent(address _address) {\r\n        for(uint i = 1; i <= uploaderCount; i++) {\r\n            if(whoIsUploader[i] == _address) {\r\n                require(1 == 2, \"Address already present\");\r\n            }\r\n        }\r\n\r\n        for(uint i = 1; i <= bidderCount; i++) {\r\n            if(whoIsBidder[i] == _address) {\r\n                require(1 == 2, \"Address already present\");\r\n            }\r\n        }\r\n        _;\r\n    }\r\n\r\n    function createUploader(string memory _username) public alreadyPresent(msg.sender) {\r\n        uploaderCount++;\r\n        whoIsUploader[uploaderCount] = msg.sender;\r\n        uploaders[msg.sender] = Uploader(uploaderCount, _username);\r\n    }\r\n\r\n    function createBidder(string memory _username) public alreadyPresent(msg.sender) {\r\n        bidderCount++;\r\n        whoIsBidder[bidderCount] = msg.sender;\r\n        bidders[msg.sender] = Bidder(bidderCount, _username);\r\n    }\r\n\r\n    function createTender(string memory _itemName, string memory _itemDescription, uint _quantity) public {\r\n        tenderCount++;\r\n        tenders[tenderCount] = Tender(tenderCount, _itemName, _itemDescription, _quantity, msg.sender); /*here*/\r\n    }\r\n\r\n    function createBid(uint _tenderId, uint _bid) public {\r\n        bidCount++;\r\n        string memory tenderName = tenders[_tenderId].itemName;\r\n        address tenderIssuer = tenders[_tenderId].userHash;\r\n        bids[bidCount] = Bid(bidCount, _tenderId, tenderName, _bid, msg.sender, tenderIssuer); /*here*/\r\n    }\r\n    //uint _BId,uint _TId,string memory _TTitle,uint _BidAmount,address _UHash,address _TIssuer\r\n    function addBidWin(uint _BId,uint _TId,string memory _TTitle,uint _BidAmount,address _UHash,address _TIssuer) public {\r\n        bidWinCount++;\r\n        bidWins[bidWinCount] = Bid(_BId,_TId,_TTitle,_BidAmount,_UHash,_TIssuer);\r\n    }\r\n}\r\n",
  "sourcePath": "D:\\Ethereum-AuctionBidding\\contracts\\Tender.sol",
  "compiler": {
    "name": "solc",
    "version": "0.5.16+commit.9c3226ce.Emscripten.clang"
  },
  "schemaVersion": "3.4.3",
  "updatedAt": "2021-10-12T15:35:26.713Z",
  "networkType": "ethereum",
  "devdoc": {
    "methods": {}
  },
  "userdoc": {
    "methods": {}
  }
}